:100000000C9485000C94A2000C94A2000C94A20005
:100010000C94A2000C94DC000C94A2000C94A2009E
:100020000C94A2000C94A2000C94A2000C94A200C8
:100030000C94A2000C94A2000C94A2000C94A200B8
:100040000C94CA0B0C94A2000C94A2000C94A20075
:100050000C94030B0C94C10A0C94A2000C94A20003
:100060000C94A2000C94A2000C94A2000C94A20088
:100070000C94A2000C94A2000C94A20025313064D0
:1000800000477265656E2053636F72653A200025E4
:10009000313064005265642053636F72653A20000A
:1000A0005072657373206120627574746F6E207472
:1000B0006F20737461727420616761696E004741DB
:1000C0004D45204F56455200435353453230313051
:1000D0002F373230312070726F6A65637420627915
:1000E000205965626169204865207334353436369D
:1000F00038310052657665727369001B5B324A00C5
:100100001B5B25643B256448000011241FBECFEF14
:10011000D8E0DEBFCDBF11E0A0E0B1E0ECEBFEE146
:1001200002C005900D92A033B107D9F722E0A0E3F9
:10013000B1E001C01D92A03CB207E1F70E94FD09A9
:100140000C945C0F0C940000E8E6F0E08081826083
:1001500080838BB382608BBBECE6F0E080818760AC
:10016000808310923001089580913001181614F5A3
:10017000809131016FB7F89491E009C0F901EF5C0B
:10018000FE4F4081F901E05DFE4F40839F5F292FC4
:1001900030E040913001042E000C550B2417350738
:1001A0006CF39091300191509093300166231CF4D0
:1001B000789408958FEF08951F920F920FB60F92C3
:1001C00011242F933F934F938F939F93EF93FF931C
:1001D00043B1477080E026C09091300194300CF517
:1001E000242F30E0082E02C0359527950A94E2F7B7
:1001F00020FF17C02091350130E0082E02C0359550
:1002000027950A94E2F720FD0CC0E091300191E0BF
:100210009E0F909330010E2E000CFF0BEF5CFE4FF3
:1002200080838F5F8330C0F240933501FF91EF915F
:100230009F918F914F913F912F910F900FBE0F90F3
:100240001F9018950F931F93CF93DF93CDB7DEB711
:1002500028970FB6F894DEBF0FBECDBF0E946F087F
:1002600080E090E009C0E1E0F0E0EC0FFD1FE80F56
:10027000F91F25E32083019688309105A4F300E05F
:1002800010E008C0BE016F5F7F4F802F0E945208B0
:100290000F5F1F4F04301105ACF30CE010E008C0F5
:1002A000BE016F5F7F4F802F0E9452080F5F1F4F6C
:1002B00000311105ACF328960FB6F894DEBF0FBEDF
:1002C000CDBFDF91CF911F910F9108951F93CF93D1
:1002D000DF93CDB7DEB728970FB6F894DEBF0FBE19
:1002E000CDBF0E946F0810E029C0E12FF0E0E85E6A
:1002F000FE4F908190FF02C02FE001C020EF87E009
:1003000013C0992344F4E1E0F0E0EC0FFD1FE80F87
:10031000F11D208307C0E1E0F0E0EC0FFD1FE80FC6
:10032000F11D1082990F81508111EBCF1982BE010E
:100330006F5F7F4F812F0E9452081F5F1031A8F21C
:1003400028960FB6F894DEBF0FBECDBFDF91CF91D8
:100350001F910895413041F0423041F0433041F067
:10036000443041F44FEF07C04FE005C040EF03C0F9
:100370004CE301C040E08C5F0E9433080895CF93A6
:100380000E94220190E013C0E92FF0E0EE0FFF1F62
:10039000EE0FFF1FEE0FFF1FE05BFE4FE80FF11D9A
:1003A00010828F5F01C080E0883070F39F5F9830CB
:1003B000D0F3C0E01AC0EC2FF0E0EE0FFF1FE45DB9
:1003C000FE4F80816181E82FF0E0EE0FFF1FEE0FFE
:1003D000FF1FEE0FFF1FE05BFE4FE60FF11D91E0E8
:1003E000908341E00E94AA01CF5FC23020F3C0E0B9
:1003F0001AC0EC2FF0E0EE0FFF1FE85DFE4F80818A
:100400006181E82FF0E0EE0FFF1FEE0FFF1FEE0FF0
:10041000FF1FE05BFE4FE60FF11D92E0908342E08C
:100420000E94AA01CF5FC23020F381E08093900147
:1004300085E080939D0183E080934F0110929101AC
:100440000E94BA0B609398017093990180939A016E
:1004500090939B0180E480937C0086E880937A00EF
:10046000CF910895883080F4683080F4E82FF0E070
:10047000EE0FFF1FEE0FFF1FEE0FFF1FE05BFE4FA3
:10048000E60FF11D8081089580E0089580E00895D1
:100490009F92AF92BF92CF92DF92EF92FF920F9313
:1004A0001F93CF93DF93CDB7DEB760970FB6F89465
:1004B000DEBF0FBECDBF9FEF980F998331E0360F9F
:1004C0003A838B833C8321E0280F2D833E832F8347
:1004D000688729872FEF260F2A878B872C879D8790
:1004E0002E879F87688BE82FF0E0EE0FFF1FEE0F3F
:1004F000FF1FEE0FFF1FE05BFE4FE60FF11D908127
:10050000911102C100919001013021F46894DD2421
:10051000D1F802C0DD24D39490E006C0E92FF0E0CA
:10052000E256FE4F10829F5F9830C0F3B62EC82E61
:1005300010E017C0E12EF12CF701EE0FFF1F81E054
:1005400090E08C0F9D1FE80FF91F618180810E9450
:100550003202D81205C0F701E256FE4F81E08083D7
:100560001F5F183038F310E0D12CC9C0E12EF12CF8
:10057000F701E256FE4F9081913009F0BFC0111192
:1005800018C0AB2C9C2C9A94A3946A2D892D0E94A0
:100590003202882309F4B2C0081307C082E0F701D1
:1005A000E256FE4F8083DD24D39497E09A1558F7E6
:1005B000A5C01130B1F4AB2CA3946A2D8C2D0E94F0
:1005C0003202882309F49AC0081307C082E0F701B9
:1005D000E256FE4F8083DD24D39487E08A1560F7CE
:1005E0008DC01230D9F49B2CAC2CA3949394692D1C
:1005F0008A2D0E943202882309F480C0081307C0A4
:1006000082E0F701E256FE4F8083DD24D39497E029
:100610009A1508F473C0991540F770C01330B1F4FF
:10062000AC2CA3946B2D8A2D0E943202882309F4EE
:1006300065C0081307C082E0F701E256FE4F8083D1
:10064000DD24D39487E08A1560F758C01430C1F4D4
:100650009B2CAC2CA3949A94692D8A2D0E94320273
:10066000882309F44BC0081307C082E0F701E25663
:10067000FE4F8083DD24D39497E09A1558F73EC04F
:10068000153091F4AB2CAA946A2D8C2D0E94320265
:100690008823A1F10813F7CF82E0F701E256FE4F5D
:1006A0008083DD24D394EFCF1630A1F49B2CAC2CA7
:1006B000AA949A94692D8A2D0E9432028823F1F01F
:1006C0000813F6CF82E0F701E256FE4F8083DD2467
:1006D000D394EECF173091F4AC2CAA946B2D8A2DC5
:1006E0000E943202882351F00813F7CF82E0F7010D
:1006F000E256FE4F8083DD24D394EFCF1F5F183086
:1007000008F434CF8D2D01C080E060960FB6F894C8
:10071000DEBF0FBECDBFDF91CF911F910F91FF9034
:10072000EF90DF90CF90BF90AF909F900895CF93C0
:10073000DF9360914F0180919D010E944802809358
:100740009C0190919101992371F0D0914F01C0913A
:100750009D016D2F8C2F0E943202482F6D2F8C2F00
:100760000E94AA0111C0813041F443E060914F0121
:1007700080919D010E94AA0107C044E060914F0151
:1007800080919D010E94AA019091910181E0891BB5
:1007900080939101DF91CF9108950F931F93CF9391
:1007A000DF93082F162FD0914F01C0919D016D2F1F
:1007B0008C2F0E943202482F6D2F8C2F0E94AA018D
:1007C00080919D01800F877080939D0160914F0102
:1007D000610F677060934F0110929101DF91CF918B
:1007E0001F910F91089580914401813069F4909197
:1007F0004101913049F461E00E94CD0382E0809391
:100800004401809341010895813071F49091420137
:10081000913051F461E08FEF0E94CD0382E080932C
:10082000440180934201089590914301913071F405
:1008300020914101213051F46FEF81E00E94CD03FE
:1008400082E080934301809341010895913071F4D7
:1008500020914201213051F46FEF8FEF0E94CD03C0
:1008600082E080934301809342010895813041F4F6
:1008700061E080E00E94CD0382E08093440108950E
:10088000913041F46FEF80E00E94CD0382E08093CD
:100890004301089580914101813039F460E00E9464
:1008A000CD0382E08093410108958091420181301F
:1008B00039F460E08FEF0E94CD0382E08093420123
:1008C000089580913C01811106C0ECE7F0E0808141
:1008D0008E7F808305C0ECE7F0E0808181608083BB
:1008E000EAE7F0E080818064808380917A0086FD71
:1008F000FCCF809178009091790020913C012111EA
:1009000036C0813223E0920780F080913F019091C0
:10091000400101969093400180933F01019709F0B7
:1009200059C081E08093410155C08C3221E092078B
:1009300080F480913F019091400101969093400195
:1009400080933F01019709F045C081E08093420107
:1009500041C08D599140873C9105E0F510924101CD
:10096000109242011092400110923F0133C0813237
:1009700023E0920778F080913D0190913E0101962D
:1009800090933E0180933D01019721F581E0809392
:10099000440120C08C3221E0920778F480913D011F
:1009A00090913E01019690933E0180933D01019705
:1009B00089F481E0809343010DC08D599140873CBB
:1009C000910540F4109244011092430110923E01AF
:1009D00010923D010E94F30390913C0181E0892730
:1009E00080933C01089581E080933B010895CF936B
:1009F000DF93D0E00CC06C2F8D2F0E944802813015
:100A0000B1F0CF5F01C0C0E0C830A8F3DF5FD830DD
:100A1000D0F380919001813029F482E0809390019D
:100A200080E006C081E08093900180E001C081E019
:100A3000DF91CF91089581B1886181B98091900152
:100A4000813039F482B1877E82B982B1886082B9FF
:100A5000089582B1877E82B982B1806182B908959A
:100A60008091390181112AC0109293011092920154
:100A700020E022C0E22FF0E0EE0FFF1FEE0FFF1F7D
:100A8000EE0FFF1FE05BFE4FE80FF11D90819130EC
:100A900031F4909193019F5F9093930107C092303E
:100AA00029F4909192019F5F909392018F5F01C012
:100AB00080E08830F8F22F5F2830D0F36AE070E0F1
:100AC0008AE090E00E94880B84E990E09F938F93E6
:100AD0000E946E0C6AE070E083E290E00E94880B56
:100AE000809193011F928F938FE890E09F938F9353
:100AF0000E946E0C6CE070E08AE090E00E94880B2F
:100B000081E890E09F938F930E946E0C6CE070E000
:100B100083E290E00E94880B809192011F928F9354
:100B20008CE790E09F938F930E946E0C8DB79EB7D9
:100B30000C960FB6F8949EBF0FBE8DBF089580919E
:100B40003A0181114BC08FEF87B981B1846081B9BF
:100B500080919001813019F4E091930102C0E091FD
:100B60009201EA3048F4F0E0E050FF4F808188B90C
:100B700082B18B7F82B9089580913801982F91704E
:100B800080FF16C082B18B7F82B98DECE89F812DEA
:100B90001124869586958695880F982F990F990F21
:100BA000890FE81BF0E0E050FF4F808188B911C049
:100BB00091110FC082B1846082B98DECE89FE12D64
:100BC0001124E695E695E695F0E0E050FF4F808130
:100BD00088B9809138018F5F8093380108958091A2
:100BE0003701813019F410923701089581E0809324
:100BF00037010895CF92DF92EF92FF920F931F93E8
:100C000080913A01811110C00E94BA0B6093940147
:100C10007093950180939601909397018EE1809354
:100C20004A0181E080933A018FEF87B981B18460F6
:100C300081B980914A018A30C0F482B18B7F82B938
:100C4000E0914A018DECE89F812D112486958695CF
:100C50008695880F982F990F990F890FE81BF0E060
:100C6000E050FF4F808188B92DC08091360180FD12
:100C700018C082B18B7F82B9E0914A018DECE89F68
:100C8000812D1124869586958695880F982F990F2A
:100C9000990F890FE81BF0E0E050FF4F808188B981
:100CA00011C082B1846082B980914A01EDEC8E9FBF
:100CB000E12D1124E695E695E695F0E0E050FF4F32
:100CC000808188B980914A01811116C081E08093AA
:100CD000390180919001813031F41092930180E4C8
:100CE0008093920105C080E4809393011092920159
:100CF0000E9430050E94F3040E94BA0B00919401F7
:100D00001091950120919601309197016801790128
:100D100048EEC40E43E0D41EE11CF11C6C157D05A9
:100D20008E059F0598F020914A01222379F0309199
:100D30003701311103C0215020934A01C092940120
:100D4000D0929501E0929601F09297018091360140
:100D50008F5F809336011F910F91FF90EF90DF908E
:100D6000CF90089510923A011092360108951F9382
:100D7000CF93DF9380919C01813009F04DC1809128
:100D80009D01E82FF0E060914F0140919001EE0F3E
:100D9000FF1FEE0FFF1FEE0FFF1FE05BFE4FE60F82
:100DA000F11D40830E94AA01C0E00CC1EC2FF0E0CD
:100DB000E256FE4F8081823009F003C1D0919D013F
:100DC00010914F01C1111FC0D1501F5F612F8D2F96
:100DD0000E94320240919001841709F4F2C0ED2F75
:100DE000F0E0EE0FFF1FEE0FFF1FEE0FFF1FE05BA7
:100DF000FE4FE10FF11D4083612F8D2F0E94AA014C
:100E0000183010F3DEC0C130F1F41F5F612F8D2F59
:100E10000E94320240919001841709F4D2C0ED2F54
:100E2000F0E0EE0FFF1FEE0FFF1FEE0FFF1FE05B66
:100E3000FE4FE10FF11D4083612F8D2F0E94AA010B
:100E4000183018F3BEC0C23011F5DF5F1F5F612F8D
:100E50008D2F0E94320240919001841709F4B1C095
:100E6000ED2FF0E0EE0FFF1FEE0FFF1FEE0FFF1F45
:100E7000E05BFE4FE10FF11D4083612F8D2F0E943B
:100E8000AA01D83008F09DC01830F8F29AC0C330DB
:100E9000F1F4DF5F612F8D2F0E94320240919001AB
:100EA000841709F48EC0ED2FF0E0EE0FFF1FEE0F58
:100EB000FF1FEE0FFF1FE05BFE4FE10FF11D4083B0
:100EC000612F8D2F0E94AA01D83018F37AC0C43048
:100ED000F9F4DF5F1150612F8D2F0E943202409193
:100EE0009001841709F46DC0ED2FF0E0EE0FFF1FA5
:100EF000EE0FFF1FEE0FFF1FE05BFE4FE10FF11D36
:100F00004083612F8D2F0E94AA01D83010F359C061
:100F1000C530E1F41150612F8D2F0E9432024091B3
:100F20009001841709F44DC0ED2FF0E0EE0FFF1F84
:100F3000EE0FFF1FEE0FFF1FE05BFE4FE10FF11DF5
:100F40004083612F8D2F0E94AA01E4CFC630E1F4C7
:100F5000D1501150612F8D2F0E943202409190018B
:100F6000841779F1ED2FF0E0EE0FFF1FEE0FFF1F5A
:100F7000EE0FFF1FE05BFE4FE10FF11D4083612F7D
:100F80008D2F0E94AA01E4CFC730D9F4D150612F30
:100F90008D2F0E94320240919001841791F0ED2F25
:100FA000F0E0EE0FFF1FEE0FFF1FEE0FFF1FE05BE5
:100FB000FE4FE10FF11D4083612F8D2F0E94AA018A
:100FC000E5CFCF5FC83008F4F1CE80919001813039
:100FD00061F482E08093900180913A01813081F444
:100FE0000E94B2060E94FA050BC081E08093900136
:100FF00080913A01813021F40E94B2060E94FA05E4
:101000000E9430050E94F704811106C00E94F70477
:10101000811102C00E94F304DF91CF911F910895C6
:1010200080913B018130D1F020E015C0E22FF0E04B
:10103000EE0FFF1FEE0FFF1FEE0FFF1FE05BFE4FD7
:10104000E90FF11D8081882349F09F5F01C090E086
:10105000983060F32F5F2830D0F381E0089580E866
:101060000E94560B08951F93CF93DF938031B0F405
:101070006830A0F4142FC62FD82F81E00E94820B75
:101080006C2F677080E1689F900111248D2F8F7005
:10109000822B0E94820B812F0E94820BDF91CF91C5
:1010A0001F9108950F931F93CF938031A0F48B016C
:1010B000C82F83E00E94820B8C2F8F700E94820BBE
:1010C000C0E007C0F801EC0FF11D80810E94820B87
:1010D000CF5FC830B8F3CF911F910F9108958FE083
:1010E0000E94820B08950E942F080E94A40040E0F5
:1010F00060E07BE480E090E00E946E0A0E94A20B18
:10110000789408950E94990B6AE070E08AE090E07C
:101110000E94880B83EF90E09F938F930E946E0C48
:101120006CE070E08AE090E00E94880B88EC90E030
:101130009F938F930E946E0C0E9466010F900F90F8
:101140000F900F900E94B50A882339F08091BA025F
:101150009091BB020E94300C01C08FEF833731F0B9
:10116000833521F00E94B4008F3F61F308950E94FF
:10117000990B0E94BF010E9430050E94B4000E949A
:10118000BC0A08954F925F926F927F928F929F92C6
:10119000AF92BF92CF92DF92EF92FF920F931F9385
:1011A000CF93DF93CDB7DEB72E970FB6F894DEBF9F
:1011B0000FBECDBF0E94BA0B6D837E838F8398874D
:1011C0000E94BA0B2B013C0110E019821A821B828B
:1011D0001C8219861A861B861C86C12CCE86D0C01E
:1011E0000E94B400082F823039F4DE84D11004C08C
:1011F00060E08FEF0E94CD03013039F4EE84E110FE
:1012000004C061E080E00E94CD030E94B50A8823FB
:1012100041F08091BA029091BB020E94300C8D8700
:1012200002C02FEF2D873D85373711F0373539F460
:10123000CE84C11004C061E080E00E94CD032D8502
:10124000213611F0213439F4CE84C11004C060E09D
:101250008FEF0E94CD032D85233711F0233539F40C
:10126000CE84C11004C06FEF80E00E94CD032D85B5
:10127000243611F0243439F4CE84C11004C060E067
:1012800081E00E94CD03002319F02D85203229F43E
:10129000CE84C11002C00E94B7062D85243711F0FC
:1012A000243551F4CE84C11007C0112321F00E94CF
:1012B000B20610E001C011E00E941B05DE84D110CF
:1012C00002C00E9461040E94BA0B4B015C016B01D9
:1012D0007C0129813A814B815C81C21AD30AE40ADC
:1012E000F50A8D819E81AF81B8858C509E4FAF4F9E
:1012F000BF4FC816D906EA06FB0648F03E853111F5
:1013000006C00E949703CD82DE82EF82F886D30169
:10131000C2010496A11DB11D88169906AA06BB0636
:1013200058F0113029F40E94FA052401350104C057
:101330000E949F05240135014D85403711F040354D
:10134000F9F4CE84C11009C00E94EF0589869A86FF
:10135000AB86BC8621E02E8713C00E94EF050E9459
:10136000BA0B6B017C0129853A854B855C85C21AD5
:10137000D30AE40AF50AC982DA82EB82FC821E866D
:101380000E941008882309F42BCF2E960FB6F894EC
:10139000DEBF0FBECDBFDF91CF911F910F91FF90A8
:1013A000EF90DF90CF90BF90AF909F908F907F9005
:1013B0006F905F904F9008956EE070E08AE090E04B
:1013C0000E94880B8EEB90E09F938F930E946E0C8F
:1013D0006FE070E08AE090E00E94880B80EA90E085
:1013E0009F938F930E946E0C0F900F900F900F9011
:1013F0000E94B4008F3FE1F308950E9473080E9499
:1014000082080E94B7080E94C2080E94DC09F9CF36
:10141000CF93C82F8A3019F48DE00E94080A9FB735
:10142000907802C0992329F18091A7018F3FD1F3D1
:10143000F894E091A60181E08E0F8093A601F0E080
:10144000E855FE4FC0838091A7018F5F8093A7016D
:101450008091A6018F3F11F41092A601E1ECF0E01B
:10146000808180628083992339F0789480E090E0D5
:1014700005C081E090E002C080E090E0CF91089547
:101480008091B9028823E1F32FB72078F8948091F6
:10149000A7023091B90290E0831B91095AF4E091C0
:1014A000A7028091B902F0E0E81BF109E854FD4F72
:1014B00080810AC0E091A7028091B902F0E0E81BA8
:1014C000F109E855FD4F80819091B90291509093B8
:1014D000B902222309F0789490E008951092A601B1
:1014E0001092A7011092A7021092B9021092B802AE
:1014F00040934501DC01CB01880F991FAA1FBB1F38
:10150000880F991FAA1FBB1F9C01AD01220F331F1B
:10151000441F551F60E072E18AE790E00E94EF0BE4
:10152000BA01A9014F5F5F4F6F4F7F4FDB01CA01C7
:101530001AF40196A11DB11DB595A79597958795AC
:1015400001979093C5008093C400E1ECF0E088E13E
:101550008083808180688083EAEBF2E08AE091E01A
:10156000938382839183808308959091B90281E06F
:10157000911101C080E008951092A7021092B90263
:1015800008951F920F920FB60F9211242F938F93ED
:101590009F93EF93FF938091A701882329F1809176
:1015A000A6012091A70190E0821B91095AF4E091D5
:1015B000A6018091A701F0E0E81BF109E955FD4F74
:1015C00090810AC0E091A6018091A701F0E0E81B9C
:1015D000F109E855FE4F90818091A70181508093D9
:1015E000A7019093C60005C0E1ECF0E080818F7DFB
:1015F0008083FF91EF919F918F912F910F900FBE5C
:101600000F901F9018951F920F920FB60F921124F2
:101610002F933F934F935F936F937F938F939F93FA
:10162000AF93BF93CF93EF93FF93C091C600809188
:101630004501882349F08091A7018F3F29F060E0A0
:1016400070E08C2F0E94080A8091B902803120F04E
:1016500081E08093B80218C0CD3009F4CAE0E0916F
:10166000A70281E08E0F8093A702F0E0E855FD4FBE
:10167000C0838091B9028F5F8093B9028091A702E5
:10168000803111F41092A702FF91EF91CF91BF9199
:10169000AF919F918F917F916F915F914F913F910A
:1016A0002F910F900FBE0F901F90189594B1906BD3
:1016B00094B995B1906195B990E59CBD883021F0C1
:1016C000803211F0823019F491E09DBD01C01DBC43
:1016D000803269F028F4883071F0803161F00EC0FA
:1016E000803429F0803851F48CB581608CBD8CB584
:1016F00082608CBD03C08CB581608CBD85B18F7E4E
:1017000085B908958EBD0DB407FEFDCF8EB5089541
:101710009F938F937F936F9380E091E09F938F933C
:101720000E946E0C0F900F900F900F900F900F90E3
:1017300008958BEF90E09F938F930E946E0C0F9013
:101740000F9008951092460110924701109248019F
:101750001092490116BC8CE787BD82E084BD83E00E
:1017600085BDEEE6F0E080818260808385B3827083
:1017700085BB08958FB7282F2078F8946091460193
:10178000709147018091480190914901222309F00D
:10179000789408951F920F920FB60F9211248F9391
:1017A0009F93AF93BF938091460190914701A09181
:1017B0004801B09149010196A11DB11D80934601D8
:1017C00090934701A0934801B0934901BF91AF9115
:1017D0009F918F910F900FBE0F901F901895052E1F
:1017E00097FB1EF400940E94060C57FD07D00E9440
:1017F0000E0C07FC03D04EF40C94060C509540954B
:10180000309521953F4F4F4F5F4F089590958095AC
:10181000709561957F4F8F4F9F4F0895A1E21A2ECB
:10182000AA1BBB1BFD010DC0AA1FBB1FEE1FFF1F84
:10183000A217B307E407F50720F0A21BB30BE40BD4
:10184000F50B661F771F881F991F1A9469F760951B
:101850007095809590959B01AC01BD01CF010895D5
:10186000CF93DF93EC012B8120FF33C026FF0AC00A
:101870002F7B2B838E819F8101969F838E838A810C
:1018800090E029C022FF0FC0E881F9818081082EF5
:10189000000C990B009719F420622B831AC0319623
:1018A000F983E8830EC0EA85FB85099597FF09C097
:1018B0002B81019611F080E201C080E1822B8B83A5
:1018C00008C02E813F812F5F3F4F3F832E83992792
:1018D00002C08FEF9FEFDF91CF910895A0E0B0E0BD
:1018E000E4E7FCE00C94330FAE01495F5F4FDA018F
:1018F0006D917D91AD010AEB12E0F8018281938137
:10190000DC0113962C911397286013962C930E9458
:10191000940CD8011296ED91FC9113972381277FA7
:101920002383E4E00C944F0FABE0B0E0EAE9FCE085
:101930000C94250F6C017B018A01FC011782168231
:10194000838181FFCCC1CE0101963C01F6019381D8
:10195000F70193FD859193FF81917F01882309F41D
:10196000BAC1853239F493FD859193FF81917F014E
:10197000853229F4B60190E00E948B0EE7CF912CBE
:10198000212C312CFFE1F315D8F08B3279F038F4AB
:10199000803279F08332A1F4232D20611DC08D3275
:1019A00061F0803369F4232D216016C0832D82609D
:1019B000382EE32DE4603E2E2AC0F32DF8601DC0C2
:1019C00037FC2DC020ED280F2A3040F08E32B9F4BC
:1019D00036FC81C1232D2064322E19C036FE06C08C
:1019E0008AE0989E200D1124922E11C0EAE02E9ECE
:1019F000200D1124222EF32DF0623F2E08C08C36CC
:101A000021F4832D8068382E02C0883641F4F70116
:101A100093FD859193FF81917F018111B3CF982F21
:101A20009F7D9554933028F40C5F1F4F9FE399835B
:101A30000DC0833631F0833771F0833509F059C01A
:101A400021C0F801808189830E5F1F4F8824839411
:101A5000912C530113C02801F2E04F0E511CF801E4
:101A6000A080B18036FE03C0692D70E002C06FEF28
:101A70007FEFC5010E94800E4C018201F32DFF779C
:101A80003F2E16C0280122E0420E511CF801A08012
:101A9000B18036FE03C0692D70E002C06FEF7FEFAA
:101AA000C5010E94750E4C01F32DF0683F2E820196
:101AB00033FC1BC0822D90E088169906B0F4B60165
:101AC00080E290E00E948B0E2A94F4CFF50137FC5F
:101AD000859137FE81915F01B60190E00E948B0EE7
:101AE00021102A9421E0821A91088114910471F73F
:101AF000E8C0843611F0893641F5F80137FE07C099
:101B000060817181828193810C5F1F4F08C0608169
:101B10007181072E000C880B990B0E5F1F4FF32D60
:101B2000FF763F2E97FF09C090958095709561953F
:101B30007F4F8F4F9F4FF0683F2E2AE030E0A30188
:101B40000E94C70E882E861845C0853731F4232D94
:101B50002F7EB22E2AE030E025C0932D997FB92E3A
:101B60008F36C1F018F4883579F0B5C0803719F098
:101B7000883721F0B0C0E92FE061BE2EB4FE0DC061
:101B8000FB2DF460BF2E09C034FE0AC0292F266049
:101B9000B22E06C028E030E005C020E130E002C0EF
:101BA00020E132E0F801B7FE07C0608171818281D7
:101BB00093810C5F1F4F06C06081718180E090E0CF
:101BC0000E5F1F4FA3010E94C70E882E8618FB2DA3
:101BD000FF773F2E36FE0DC0232D2E7FA22E8914B7
:101BE00058F434FE0BC032FC09C0832D8E7EA82E23
:101BF00005C0B82CA32C03C0B82C01C0B92CA4FE7E
:101C00000FC0FE01E80DF11D8081803321F49A2D73
:101C1000997EA92E09C0A2FE06C0B394B39404C055
:101C20008A2D867809F0B394A3FC11C0A0FE06C0EB
:101C3000B21488F4280C922C9B180EC0B21460F4D5
:101C4000B60180E290E00E948B0EB394F7CFB214FD
:101C500018F42B1802C0982C212CA4FE10C0B60139
:101C600080E390E00E948B0EA2FE17C0A1FC03C08F
:101C700088E790E002C088E590E0B6010CC08A2DAC
:101C8000867859F0A1FE02C08BE201C080E2A7FC79
:101C90008DE2B60190E00E948B0E891438F4B601F3
:101CA00080E390E00E948B0E9A94F7CF8A94F30120
:101CB000E80DF11D8081B60190E00E948B0E81102D
:101CC000F5CF222009F442CEB60180E290E00E94D6
:101CD0008B0E2A94F6CFF6018681978102C08FEF92
:101CE0009FEF2B96E2E10C94410FFC0105906150AF
:101CF00070400110D8F7809590958E0F9F1F089522
:101D0000FC016150704001900110D8F780959095CA
:101D10008E0F9F1F08950F931F93CF93DF93FB01A7
:101D2000238121FD03C08FEF9FEF2CC022FF16C03F
:101D300046815781248135814217530744F4A0819D
:101D4000B1819D012F5F3F4F318320838C9326818A
:101D500037812F5F3F4F3783268314C08B01EC01FF
:101D6000FB010084F185E02D0995892BE1F6D8016E
:101D700016968D919C911797019617969C938E932A
:101D80001697CE01DF91CF911F910F910895FA011F
:101D9000AA27283051F1203181F1E8946F936E7FAA
:101DA0006E5F7F4F8F4F9F4FAF4FB1E03ED0B4E09B
:101DB0003CD0670F781F891F9A1FA11D680F791FDC
:101DC0008A1F911DA11D6A0F711D811D911DA11DED
:101DD00020D009F468943F912AE0269F11243019FD
:101DE000305D3193DEF6CF010895462F4770405D98
:101DF0004193B3E00FD0C9F7F6CF462F4F70405D47
:101E00004A3318F0495D31FD4052419302D0A9F7A1
:101E1000EACFB4E0A6959795879577956795BA959B
:101E2000C9F700976105710508959B01AC010A2E61
:101E300006945795479537952795BA95C9F7620F38
:101E4000731F841F951FA01D08952F923F924F92DC
:101E50005F926F927F928F929F92AF92BF92CF923A
:101E6000DF92EF92FF920F931F93CF93DF93CDB743
:101E7000DEB7CA1BDB0B0FB6F894DEBF0FBECDBFBB
:101E800009942A88398848885F846E847D848C848C
:101E90009B84AA84B984C884DF80EE80FD800C8195
:101EA0001B81AA81B981CE0FD11D0FB6F894DEBF78
:0C1EB0000FBECDBFED010895F894FFCFE8
:101EBC003F065B4F666D7D077F6F000000030000DF
:101ECC000000080A400A00007D5159757804787D9D
:101EDC005159757454545C5D0304040303030404E6
:00000001FF
